:03000000020026D5
:0C002600787FE4F6D8FD75811002006DB3
:0F016500050A5354415254020F0000020838009B
:0300030012015493
:100006005389F1758CFC758A66D28C208D06C28D5B
:05001600C28C80F722FE
:10014200905000EFF09050027405F0120006740116
:02015200F02299
:10015400905000EFF09050027404F0120006E4F0A6
:010164002278
:030023000200B226
:1000B200C0E0C083C082C0D075D000C000C0078538
:1000C2000982850883E599F00509E50970020508AA
:1000D200B4000BE508B44806750838750900750FB9
:1000E20000751000740A2510F8E6FF120142120092
:1000F200060510E5107002050FC39405E50F648034
:10010200948040E0D007D000D0D0D082D083D0E01D
:0101120032BA
:10011300D2AFD2ABD2A9D2AC7F381200037F0F1279
:1001230000037F011201541200067F811201541251
:0F0133000006758920759850758DFDD28E80FE5F
:10003200020113E493A3F8E493A34003F68001F2D0
:1000420008DFF48029E493A3F85407240CC8C333CF
:10005200C4540F4420C8834004F456800146F6DF9E
:10006200E4800B0102040810204080900165E47EC8
:10007200019360BCA3FF543F30E509541FFEE49393
:10008200A360010ECF54C025E060A840B8E493A35A
:10009200FAE493A3F8E493A3C8C582C8CAC583CA85
:1000A200F0A3C8C582C8CAC583CADFE9DEE780BE3D
:01017400008A
:00000001FF
