:030000000200906B
:0C009000787FE4F6D8FD7581150200D7DA
:100131000210000002140000020828000212007FD1
:04014100020E0000AA
:10011C005389F1758CFC758A66D28C208D06C28D44
:05012C00C28C80F722E7
:10000300D2A9D2ABD2AFE4F590F5B05389DF4389DF
:1000130010F58DF58BC28CC3E511940AE51064804D
:10002300948040F3750E00750F01E50F450E60597E
:1000330053892F759850758DFDD28ED290903801CB
:10004300E0750A00F50B850982850883F0F5993080
:1000530099FDC2990509E50970020508B4000BE58D
:1000630008B43806750828750900E4F514F515C3B6
:10007300E51594E8E5146480948350C112011C05CE
:0D00830015E51570EA051480E6E4FEFF2285
:10009C00020003E493A3F8E493A34003F68001F277
:1000AC0008DFF48029E493A3F85407240CC8C33365
:1000BC00C4540F4420C8834004F456800146F6DF34
:1000CC00E4800B0102040810204080900131E47E92
:1000DC00019360BCA3FF543F30E509541FFEE49329
:1000EC00A360010ECF54C025E060A840B8E493A3F0
:1000FC00FAE493A3F8E493A3C8C582C8CAC583CA1B
:10010C00F0A3C8C582C8CAC583CADFE9DEE780BED2
:0101450000B9
:00000001FF
